{
  "_format": "hh-sol-artifact-1",
  "contractName": "MemoryGameFHE",
  "sourceName": "contracts/MemoryGameFHE.sol",
  "abi": [
    {
      "inputs": [
        {
          "internalType": "address",
          "name": "player",
          "type": "address"
        }
      ],
      "name": "getEncryptedBest",
      "outputs": [
        {
          "internalType": "euint32",
          "name": "",
          "type": "bytes32"
        }
      ],
      "stateMutability": "view",
      "type": "function"
    },
    {
      "inputs": [],
      "name": "getMyBest",
      "outputs": [
        {
          "internalType": "euint32",
          "name": "",
          "type": "bytes32"
        }
      ],
      "stateMutability": "view",
      "type": "function"
    },
    {
      "inputs": [],
      "name": "protocolId",
      "outputs": [
        {
          "internalType": "uint256",
          "name": "",
          "type": "uint256"
        }
      ],
      "stateMutability": "pure",
      "type": "function"
    },
    {
      "inputs": [
        {
          "internalType": "externalEuint32",
          "name": "inputHandle",
          "type": "bytes32"
        },
        {
          "internalType": "bytes",
          "name": "inputProof",
          "type": "bytes"
        }
      ],
      "name": "submitScore",
      "outputs": [],
      "stateMutability": "nonpayable",
      "type": "function"
    }
  ],
  "bytecode": "0x608060405234801561001057600080fd5b5061018c6100b0604080516080810182526000808252602082018190529181018290526060810191909152506040805160808101825273687820221192c5b662b25367f70076a37bc79b6c815273848b0066793bcc60346da1f49049357399b8d595602082015273b6e160b1ff80d67bfe90a85ee06ce0a2613607d191810191909152731364cbbf2cdf5032c47d8226a6f6fbd2afcdacac606082015290565b80517f9e7b61f58c47dc699ac88507c4f5bb9f121c03808c5676a8078fe583e464970080546001600160a01b03199081166001600160a01b039384161790915560208301517f9e7b61f58c47dc699ac88507c4f5bb9f121c03808c5676a8078fe583e46497018054831691841691909117905560408301517f9e7b61f58c47dc699ac88507c4f5bb9f121c03808c5676a8078fe583e46497028054831691841691909117905560608301517f9e7b61f58c47dc699ac88507c4f5bb9f121c03808c5676a8078fe583e46497038054909216921691909117905550565b6107ff8061019b6000396000f3fe608060405234801561001057600080fd5b506004361061004c5760003560e01c80635ca5eabe14610051578063938efea114610074578063da1f12ab14610089578063f30c998714610091575b600080fd5b336000908152602081905260409020545b60405190815260200160405180910390f35b61008761008236600461062a565b6100ba565b005b612711610062565b61006261009f3660046106a6565b6001600160a01b031660009081526020819052604090205490565b60006100fc8484848080601f01602080910402602001604051908101604052809392919081815260200183838082843760009201919091525061017f92505050565b3360009081526020819052604081205491925061011881610194565b9050600061012683836101ad565b9050600061013485856101df565b90506000610143828787610211565b90506000610152848884610211565b336000818152602081905260409020829055909150610172908290610226565b5050505050505050505050565b600061018d83836004610239565b9392505050565b60006101a78263ffffffff16600461033e565b92915050565b6000826101c1576101be6000610194565b92505b816101d3576101d06000610194565b91505b61018d838360006103d3565b6000826101f3576101f06000610194565b92505b81610205576102026000610194565b91505b61018d83836000610497565b600061021e848484610512565b949350505050565b600061023283836105ad565b5090919050565b60008051602061078a8339815191525460405163196d0b9b60e01b81526000916000805160206107aa833981519152916001600160a01b039091169063196d0b9b9061028f9088903390899089906004016106f1565b6020604051808303816000875af11580156102ae573d6000803e3d6000fd5b505050506040513d601f19601f820116820180604052508101906102d2919061075c565b8154604051630f8e573b60e21b8152600481018390523360248201529193506001600160a01b031690633e395cec90604401600060405180830381600087803b15801561031e57600080fd5b505af1158015610332573d6000803e3d6000fd5b50505050509392505050565b60008051602061078a83398151915254604051639cd07acb60e01b81526000916000805160206107aa833981519152916001600160a01b0390911690639cd07acb906103909087908790600401610775565b6020604051808303816000875af11580156103af573d6000803e3d6000fd5b505050506040513d601f19601f8201168201806040525081019061021e919061075c565b60008082156103e75750600160f81b6103eb565b5060005b60008051602061078a8339815191525460405163f77f3f1d60e01b815260048101879052602481018690526001600160f81b0319831660448201526000805160206107aa833981519152916001600160a01b03169063f77f3f1d906064015b6020604051808303816000875af1158015610469573d6000803e3d6000fd5b505050506040513d601f19601f8201168201806040525081019061048d919061075c565b9695505050505050565b60008082156104ab5750600160f81b6104af565b5060005b60008051602061078a83398151915254604051637210768160e01b815260048101879052602481018690526001600160f81b0319831660448201526000805160206107aa833981519152916001600160a01b03169063721076819060640161044a565b6000806000805160206107aa8339815191526001810154604051637702dcff60e01b81526004810188905260248101879052604481018690529192506001600160a01b031690637702dcff906064016020604051808303816000875af1158015610580573d6000803e3d6000fd5b505050506040513d601f19601f820116820180604052508101906105a4919061075c565b95945050505050565b60006000805160206107aa8339815191528054604051635ca4b5b160e11b8152600481018690526001600160a01b03858116602483015292935091169063b9496b6290604401600060405180830381600087803b15801561060d57600080fd5b505af1158015610621573d6000803e3d6000fd5b50505050505050565b60008060006040848603121561063f57600080fd5b83359250602084013567ffffffffffffffff8082111561065e57600080fd5b818601915086601f83011261067257600080fd5b81358181111561068157600080fd5b87602082850101111561069357600080fd5b6020830194508093505050509250925092565b6000602082840312156106b857600080fd5b81356001600160a01b038116811461018d57600080fd5b605481106106ed57634e487b7160e01b600052602160045260246000fd5b9052565b8481526000602060018060a01b038616602084015260806040840152845180608085015260005b818110156107345786810183015185820160a001528201610718565b50600060a0828601015260a0601f19601f830116850101925050506105a460608301846106cf565b60006020828403121561076e57600080fd5b5051919050565b8281526040810161018d60208301846106cf56fe9e7b61f58c47dc699ac88507c4f5bb9f121c03808c5676a8078fe583e46497019e7b61f58c47dc699ac88507c4f5bb9f121c03808c5676a8078fe583e4649700a26469706673582212207efc7969f1a15d721773f410f3c87225d17863e51fad07de00f05a1decdd622564736f6c63430008180033",
  "linkReferences": {},
  "deployedLinkReferences": {}
}